:020000040800F2
:1000000000000220E9110008391200083912000826
:1000100039120008391200083912000800000000E7
:10002000000000000000000000000000391200087D
:1000300039120008000000003912000839120008C7
:100040003912000839120008391200083912000864
:100050003912000839120008391200083912000854
:100060003912000839120008391200083912000844
:100070003912000839120008391200083912000834
:100080003912000839120008391200083912000824
:100090003912000839120008391200083912000814
:1000A0003912000839120008391200083912000804
:1000B00039120008391200083912000839120008F4
:1000C00039120008391200083912000839120008E4
:1000D00039120008391200083912000839120008D4
:1000E00039120008391200083912000839120008C4
:1000F00039120008391200083912000839120008B4
:1001000039120008391200083912000839120008A3
:100110003912000839120008391200083912000893
:100120003912000839120008391200083912000883
:100130003912000800000000000000003912000819
:100140003912000839120008391200083912000863
:100150003912000839120008391200083912000853
:100160003912000839120008391200083912000843
:100170003912000839120008391200080000000086
:10018000000000000000000000000000000000006F
:1001900039120008000000000000000039120008B9
:1001A00000000000000000000000000039120008FC
:1001B00039120008391200083912000839120008F3
:0401C00039120008E8
:1001C80010B5054C237833B9044B13B10448AFF389
:1001D80000800123237010BD0000002000000000F3
:1001E8008412000808B5034B1BB103490348AFF359
:1001F800008008BD000000000400002084120008F0
:1002080081F0004102E000BF83F0004330B54FEABF
:1002180041044FEA430594EA050F08BF90EA020F2C
:100228001FBF54EA000C55EA020C7FEA645C7FEABF
:10023800655C00F0E2804FEA5454D4EB5555B8BFE2
:100248006D420CDD2C4480EA020281EA030382EA53
:10025800000083EA010180EA020281EA0303362DE5
:1002680088BF30BD11F0004F4FEA01314FF4801CB8
:100278004CEA113102D0404261EB410113F0004FCA
:100288004FEA03334CEA133302D0524263EB430381
:1002980094EA050F00F0A780A4F10104D5F1200E1F
:1002A8000DDB02FA0EFC22FA05F2801841F100017A
:1002B80003FA0EF2801843FA05F359410EE0A5F14E
:1002C80020050EF1200E012A03FA0EFC28BF4CF07F
:1002D800020C43FA05F3C01851EBE37101F0004535
:1002E80007D54FF0000EDCF1000C7EEB00006EEB42
:1002F8000101B1F5801F1BD3B1F5001F0CD34908CC
:100308005FEA30004FEA3C0C04F101044FEA445222
:1003180012F5800F80F09A80BCF1004F08BF5FEAA9
:10032800500C50F1000041EB045141EA050130BD89
:100338005FEA4C0C404141EB0101013C28BFB1F59B
:10034800801FE9D291F0000F04BF01460020B1FAE6
:1003580081F308BF2033A3F10B03B3F120020CDAB9
:100368000C3208DD02F1140CC2F10C0201FA0CF097
:1003780021FA02F10CE002F11402D8BFC2F1200CFC
:1003880001FA02F120FA0CFCDCBF41EA0C019040B2
:10039800E41AA2BF01EB0451294330BD6FEA0404FB
:1003A8001F3C1CDA0C340EDC04F11404C4F12002E6
:1003B80020FA04F001FA02F340EA030021FA04F3F8
:1003C80045EA030130BDC4F10C04C4F1200220FA4F
:1003D80002F001FA04F340EA0300294630BD21FA8D
:1003E80004F0294630BD94F0000F83F4801306BF53
:1003F80081F480110134013D4EE77FEA645C18BF47
:100408007FEA655C29D094EA050F08BF90EA020FDD
:1004180005D054EA000C04BF1946104630BD91EAD5
:10042800030F1EBF0021002030BD5FEA545C05D1D8
:100438004000494128BF41F0004130BD14F5800417
:100448003CBF01F5801130BD01F0004545F0FE418B
:1004580041F470014FF0000030BD7FEA645C1ABFC0
:10046800194610467FEA655C1CBF0B46024650EAF7
:10047800013406BF52EA033591EA030F41F4002123
:1004880030BD00BF90F0000F04BF0021704730B5A9
:100498004FF4806404F132044FF000054FF000017E
:1004A80050E700BF90F0000F04BF0021704730B53F
:1004B8004FF4806404F1320410F0004548BF404214
:1004C8004FF000013EE700BF42004FEAE2014FEA69
:1004D80031014FEA02701FBF12F07F4393F07F4F44
:1004E80081F06051704732F07F4208BF704793F047
:1004F8007F4F04BF41F40021704730B54FF460745A
:1005080001F0004521F000411CE700BF50EA01025C
:1005180008BF704730B54FF000050AE050EA010205
:1005280008BF704730B511F0004502D5404261EB75
:1005380041014FF4806404F132045FEA915C3FF4B6
:10054800D8AE4FF003025FEADC0C18BF03325FEA53
:10055800DC0C18BF033202EBDC02C2F1200300FA04
:1005680003FC20FA02F001FA03FE40EA0E0021FA29
:1005780002F11444BDE600BF70B54FF0FF0C4CF417
:10058800E06C1CEA11541DBF1CEA135594EA0C0FC9
:1005980095EA0C0F00F0DEF82C4481EA030621EA04
:1005A8004C5123EA4C5350EA013518BF52EA03353F
:1005B80041F4801143F4801338D0A0FB02CE4FF0F1
:1005C8000005E1FB02E506F00042E0FB03E54FF021
:1005D8000006E1FB03569CF0000F18BF4EF0010E19
:1005E800A4F1FF04B6F5007F64F5407404D25FEA15
:1005F8004E0E6D4146EB060642EAC62141EA5551C8
:100608004FEAC52040EA5E504FEACE2EB4F1FD0C09
:1006180088BFBCF5E06F1ED8BEF1004F08BF5FEA87
:10062800500E50F1000041EB045170BD06F0004639
:1006380046EA010140EA020081EA0301B4EB5C04E6
:10064800C2BFD4EB0C0541EA045170BD41F48011DE
:100658004FF0000E013C00F3AB8014F1360FDEBF03
:10066800002001F0004170BDC4F10004203C35DADF
:100678000C341BDC04F11404C4F1200500FA05F362
:1006880020FA04F001FA05F240EA020001F0004203
:1006980021F0004110EBD37021FA04F642EB060179
:1006A8005EEA430E08BF20EAD37070BDC4F10C04A3
:1006B800C4F1200500FA04F320FA05F001FA04F267
:1006C80040EA020001F0004110EBD37041F1000153
:1006D8005EEA430E08BF20EAD37070BDC4F120055E
:1006E80000FA05F24EEA020E20FA04F301FA05F2C6
:1006F80043EA020321FA04F001F0004121FA04F26E
:1007080020EA020000EBD3705EEA430E08BF20EA3D
:10071800D37070BD94F0000F0FD101F00046400077
:1007280041EB010111F4801F08BF013CF7D041EAF9
:10073800060195F0000F18BF704703F000465200FD
:1007480043EB030313F4801F08BF013DF7D043EACE
:100758000603704794EA0C0F0CEA135518BF95EA84
:100768000C0F0CD050EA410618BF52EA4306D1D10B
:1007780081EA030101F000414FF0000070BD50EA2A
:10078800410606BF1046194652EA430619D094EAB4
:100798000C0F02D150EA013613D195EA0C0F05D19E
:1007A80052EA03361CBF104619460AD181EA0301F2
:1007B80001F0004141F0FE4141F470014FF00000AA
:1007C80070BD41F0FE4141F4780170BD70B54FF045
:1007D800FF0C4CF4E06C1CEA11541DBF1CEA1355C5
:1007E80094EA0C0F95EA0C0F00F0A7F8A4EB0504A7
:1007F80081EA030E52EA03354FEA013100F088809E
:100808004FEA03334FF0805545EA131343EA126366
:100818004FEA022245EA111545EA10654FEA00261B
:100828000EF000419D4208BF964244F1FD0404F5D4
:10083800407402D25B084FEA3202B61A65EB030530
:100848005B084FEA32024FF480104FF4002CB6EBED
:10085800020E75EB030E22BFB61A754640EA0C006D
:100868005B084FEA3202B6EB020E75EB030E22BFAD
:10087800B61A754640EA5C005B084FEA3202B6EBEE
:10088800020E75EB030E22BFB61A754640EA9C00AD
:100898005B084FEA3202B6EB020E75EB030E22BF7D
:1008A800B61A754640EADC0055EA060E18D04FEA3B
:1008B800051545EA16754FEA06164FEAC30343EADB
:1008C80052734FEAC2025FEA1C1CC0D111F4801FA8
:1008D8000BD141EA00014FF000004FF0004CB6E7A1
:1008E80011F4801F04BF01430020B4F1FD0C88BF40
:1008F800BCF5E06F3FF6AFAEB5EB030C04BFB6EB4B
:10090800020C5FEA500C50F1000041EB045170BD3D
:100918000EF0004E4EEA113114EB5C04C2BFD4EB6A
:100928000C0541EA045170BD41F480114FF0000EEE
:10093800013C90E645EA060E8DE60CEA135594EA6A
:100948000C0F08BF95EA0C0F3FF43BAF94EA0C0F6D
:100958000AD150EA01347FF434AF95EA0C0F7FF4E2
:1009680025AF104619462CE795EA0C0F06D152EA36
:1009780003353FF4FDAE1046194622E750EA41061A
:1009880018BF52EA43067FF4C5AE50EA41047FF42B
:100998000DAF52EA43057FF4EBAE12E74FEA41028E
:1009A800B2F1E04324BFB3F5001CDCF1FE5C0DD9C5
:1009B80001F0004C4FEAC0024CEA5070B2F1004F0F
:1009C80040EB830008BF20F00100704711F0804F12
:1009D80021D113F13872BCBF01F00040704741F4D7
:1009E80080114FEA5252C2F11802C2F1200C10FADB
:1009F8000CF320FA02F018BF40F001004FEAC123BF
:100A08004FEAD32303FA0CFC40EA0C0023FA02F362
:100A18004FEA4303CCE77FEA625307D150EA013338
:100A28001EBF4FF0FE4040F44000704701F0004008
:100A380040F0FE4040F40000704700BF80B400AFB3
:100A4800264B1B6C254A43F400131364234B1B6B82
:100A5800224A43F002031363214B1B68204A43F4E4
:100A6800202313601E4B5B681D4A43F44073536098
:100A78001B4B9B681A4A43F470239360184BDB683E
:100A8800174A43F4A023D360154B5B6A144A43F01A
:100A980044035362134B1B68124A43F40043136028
:100AA800104B1B680F4A23F4004313600D4B5B681F
:100AB8000C4A43F02D0353600A4BE122DA61094BDB
:100AC8002E221A62074B1B68064A43F00103136083
:100AD80000BFBD465DF8047B704700BF0038024088
:100AE800000402400054004080B483B000AF0E4BB5
:100AF8001B680D4A43F4806313600B4B1B680A4A5A
:100B080043F48073136000BF074B5B6903F0010374
:100B1800002BF9D0044B5B69FB7100BF0C37BD4655
:100B28005DF8047B704700BF0054004080B483B078
:100B380000AF0346FB7100BF0B4B5B6903F08003FA
:100B4800002BF9D0084AFB79136100BF064B5B699B
:100B580003F00403002BF9D000BF00BF0C37BD46DB
:100B68005DF8047B704700BF0054004080B485B036
:100B780000AF0346FB710C4AFB79136100BF0A4BB7
:100B88005B6903F00203002BF9D0074B5B69DAB20B
:100B9800054B9B69DBB21343FB7300BF1437BD469B
:100BA8005DF8047B704700BF0054004080B400AF7C
:100BB800054B1B68044A43F40073136000BFBD462D
:100BC8005DF8047B704700BF0054004080B485B0D6
:100BD80000AF03463960FB711346BB71BB79FB60FC
:100BE800BB79012B2FD14B4AFB79136100BF494BCD
:100BF8005B6903F00203002BF9D0464B1B68454A9A
:100C080023F480631360434B5B69DAB2414B9B6901
:100C1800DBB21343BB723F4B1B683E4A43F400737D
:100C2800136000BF3B4B5B6903F04003002BF9D016
:100C3800384B1969BA79FB68D31A1A463B681344CA
:100C4800CAB21A7060E0334AFB79136100BF314BB6
:100C58005B6903F00203002BF9D02E4B5B69DAB213
:100C68002C4B9B69DBB21343FB7219E000BF294B85
:100C78005B6903F04003002BF9D0264B1969BA7958
:100C8800FB68D31A1A463B681344CAB21A70214B40
:100C98001B68204A43F480631360FB68013BFB60D8
:100CA800FB68022BE2DC00BF1A4B5B6903F04003D0
:100CB800002BF9D0174B1969BA79FB68D31A1A4671
:100CC8003B681344CAB21A70124B1B68114A23F4CA
:100CD800806313600F4B1B680E4A43F40073136064
:100CE800FB68013BFB6000BF0A4B5B6903F04003F4
:100CF800002BF9D0074B1969BA79FB68D31A1A4641
:100D08003B681344CAB21A7000BF1437BD465DF879
:100D1800047B70470054004080B582B000AF0346A2
:100D2800FB710B46BB7113467B71FFF7DDFEFB7948
:100D38001846FFF71BFFBB791846FFF7F7FE7B79CC
:100D48001846FFF7F3FEFFF731FF00BF0837BD462F
:100D580080BD80B582B000AF3A601A460346FB7189
:100D68000B46BB7113467B71FFF7BEFEFB79184635
:100D7800FFF7FCFEBB791846FFF7D8FEFFF7B4FE75
:100D8800FB790133DBB27A7939681846FFF71EFF21
:100D9800FFF70CFF00BF0837BD4680BD80B582B0A5
:100DA80000AFBA1D01237521D020FFF7D2FFBB7910
:100DB800682B1FD10023FB71FB791A466B21D020C9
:100DC800FFF7AAFF0723FB71FB791A461921D020E8
:100DD800FFF7A2FF0023FB71FB791A461C21D020E4
:100DE800FFF79AFF0023FB71FB791A461B21D020DD
:100DF800FFF792FF00BF0837BD4680BD80B582B0BF
:100E080000AF3A4606233B21D020FFF7A2FF3B78EC
:100E18001BB21B021AB27B781BB213431AB22B4BBC
:100E28001A80BB781BB21B021AB2FB781BB21343A1
:100E38001AB2274B1A803B791BB21B021AB27B7974
:100E48001BB213431AB2234B1A80204BB3F900305C
:100E58001846FFF727FB4FF000021F4BFFF7B6FCC1
:100E680002460B4610461946FFF798FD03461B4AF3
:100E78001360174BB3F900301846FFF713FB4FF018
:100E88000002154BFFF7A2FC02460B461046194616
:100E9800FFF784FD0346124A13600E4BB3F9003086
:100EA8001846FFF7FFFA4FF000020B4BFFF78EFCD6
:100EB80002460B4610461946FFF770FD0346094ADD
:100EC800136000BF0837BD4680BD00BF1C0000206E
:100ED8001E000020200000200000D0402C00002030
:100EE800300000203400002080B582B000AF3A46C0
:100EF80006234321D020FFF72CFF3B781BB21B02AF
:100F08001AB27B781BB213431AB22D4B1A80BB78E6
:100F18001BB21B021AB2FB781BB213431AB2294B3D
:100F28001A803B791BB21B021AB27B791BB213439E
:100F38001AB2254B1A80224BB3F900301846FFF736
:100F4800B1FA1DA3D3E90023FFF740FC02460B4684
:100F580010461946FFF722FD03461C4A1360194B39
:100F6800B3F900301846FFF79DFA13A3D3E900231D
:100F7800FFF72CFC02460B4610461946FFF70EFDFC
:100F88000346134A1360104BB3F900301846FFF7B5
:100F980089FA09A3D3E90023FFF718FC02460B4698
:100FA80010461946FFF7FAFC03460A4A136000BFC9
:100FB8000837BD4680BD00BF0000000000606040EB
:100FC80022000020240000202600002038000020F5
:100FD8003C0000204000002080B582B000AF3A1DE0
:100FE80002234121D020FFF7B4FE3B791BB21B023C
:100FF8001AB27B791BB213431AB2134B1A80124BE5
:10100800B3F900301846FFF74DFA4FF000020F4BC6
:10101800FFF7DCFB02460B461046194608A3D3E946
:101028000023FFF7F3F802460B4610461946FFF770
:10103800B5FC0346064A136000BF0837BD4680BDAD
:10104800A4703D0AD7434240280000200040754064
:101058004400002080B400AF0F4B1B6C0E4A43F0D5
:10106800100313640D4B59229A620C4B4FF6FF7212
:10107800DA620A4B1B68094A43F00103136000BF98
:10108800064B1B6903F00103002BF9D000BF00BF1A
:10109800BD465DF8047B70470038024000100040F0
:1010A80080B483B000AF0346FB80084B00225A622D
:1010B80000BF064B5A6AFB889A42FAD300BF00BFAA
:1010C8000C37BD465DF8047B704700BF0010004038
:1010D80080B584B000AF0346FB800023FB8106E0A7
:1010E8004FF47A70FFF7DCFFFB890133FB81FA8943
:1010F800FB889A42F4D300BF00BF1037BD4680BDBD
:1011080080B400AF274B1B68264A43F48033136032
:1011180000BF244B1B6803F40033002BF9D0214B8C
:101128001B6C204A43F0805313641F4B1B681E4AF4
:1011380043F4404313601D4B40F205721A60194B8B
:10114800184A9B689360174B9B68164A43F4A05350
:101158009360144B9B68134A43F400439360114B0C
:10116800134A5A600F4B1B680E4A43F08073136092
:1011780000BF0C4B1B6803F00073002BF9D0094B20
:101188009B68084A43F00203936000BF054B9B68C5
:1011980003F00C03082BF9D100BF00BFBD465DF872
:1011A800047B70470038024000700040003C024059
:1011B800042D400080B500AFFFF7A2FFFFF74AFFFC
:1011C800FFF73CFCFFF7EAFDFFF718FEFFF78CFE80
:1011D800FFF702FF4FF47A70FFF77AFF00BFF3E7DB
:1011E8000D488546AFF300800C480D490D4A002391
:1011F80002E0D458C4500433C4188C42F9D30A4AC4
:101208000A4C002301E013600432A242FBD300F031
:1012180011F8FFF7CFFFFEE70000022000000020D2
:1012280000000020A4120008000000204800002050
:10123800FEE7000070B50D4D0D4C641BA410002690
:10124800A64209D10B4D0C4C00F018F8641BA410F1
:101258000026A64205D170BD55F8043B98470136D3
:10126800EEE755F8043B98470136F2E79C12000870
:101278009C1200089C120008A0120008F8B500BFD4
:10128800F8BC08BC9E467047F8B500BFF8BC08BC5F
:041298009E467047B7
:04129C00ED01000858
:0412A000C901000878
:04000005080011E9F5
:00000001FF
